{
  "contractName": "LavaWallet",
  "abi": [
    {
      "inputs": [],
      "payable": false,
      "stateMutability": "nonpayable",
      "type": "constructor"
    },
    {
      "constant": true,
      "inputs": [
        {
          "name": "tokenContract",
          "type": "address"
        },
        {
          "name": "tokenOwner",
          "type": "address"
        }
      ],
      "name": "balanceOf",
      "outputs": [
        {
          "name": "balance",
          "type": "uint256"
        }
      ],
      "payable": false,
      "stateMutability": "view",
      "type": "function"
    },
    {
      "constant": true,
      "inputs": [
        {
          "name": "digest",
          "type": "bytes32"
        }
      ],
      "name": "signatureSpent",
      "outputs": [
        {
          "name": "",
          "type": "bool"
        }
      ],
      "payable": false,
      "stateMutability": "view",
      "type": "function"
    },
    {
      "constant": false,
      "inputs": [
        {
          "name": "to",
          "type": "address"
        },
        {
          "name": "tokens",
          "type": "uint256"
        },
        {
          "name": "token",
          "type": "address"
        },
        {
          "name": "checkNumber",
          "type": "uint256"
        },
        {
          "name": "sigHash",
          "type": "bytes32"
        },
        {
          "name": "signature",
          "type": "bytes"
        }
      ],
      "name": "invalidateSignature",
      "outputs": [
        {
          "name": "",
          "type": "bool"
        }
      ],
      "payable": false,
      "stateMutability": "nonpayable",
      "type": "function"
    },
    {
      "constant": false,
      "inputs": [
        {
          "name": "from",
          "type": "address"
        },
        {
          "name": "tokens",
          "type": "uint256"
        },
        {
          "name": "token",
          "type": "address"
        },
        {
          "name": "checkNumber",
          "type": "uint256"
        },
        {
          "name": "sigHash",
          "type": "bytes32"
        },
        {
          "name": "signature",
          "type": "bytes"
        }
      ],
      "name": "withdrawTokensFrom",
      "outputs": [
        {
          "name": "",
          "type": "bool"
        }
      ],
      "payable": false,
      "stateMutability": "nonpayable",
      "type": "function"
    },
    {
      "constant": false,
      "inputs": [
        {
          "name": "from",
          "type": "address"
        },
        {
          "name": "tokens",
          "type": "uint256"
        },
        {
          "name": "token",
          "type": "address"
        },
        {
          "name": "data",
          "type": "bytes"
        }
      ],
      "name": "receiveApproval",
      "outputs": [
        {
          "name": "",
          "type": "bool"
        }
      ],
      "payable": false,
      "stateMutability": "nonpayable",
      "type": "function"
    }
  ],
  "bytecode": "0x6060604052341561000f57600080fd5b610de28061001e6000396000f30060606040526004361061006d576000357c0100000000000000000000000000000000000000000000000000000000900463ffffffff16806314278771146100725780638f4ffcb1146101445780639e73667714610200578063ca8e8fe41461023f578063f7888aec14610311575b600080fd5b341561007d57600080fd5b61012a600480803573ffffffffffffffffffffffffffffffffffffffff1690602001909190803590602001909190803573ffffffffffffffffffffffffffffffffffffffff169060200190919080359060200190919080356000191690602001909190803590602001908201803590602001908080601f0160208091040260200160405190810160405280939291908181526020018383808284378201915050505050509190505061037d565b604051808215151515815260200191505060405180910390f35b341561014f57600080fd5b6101e6600480803573ffffffffffffffffffffffffffffffffffffffff1690602001909190803590602001909190803573ffffffffffffffffffffffffffffffffffffffff1690602001909190803590602001908201803590602001908080601f01602080910402602001604051908101604052809392919081815260200183838082843782019150505050505091905050610748565b604051808215151515815260200191505060405180910390f35b341561020b57600080fd5b610225600480803560001916906020019091905050610814565b604051808215151515815260200191505060405180910390f35b341561024a57600080fd5b6102f7600480803573ffffffffffffffffffffffffffffffffffffffff1690602001909190803590602001909190803573ffffffffffffffffffffffffffffffffffffffff169060200190919080359060200190919080356000191690602001909190803590602001908201803590602001908080601f0160208091040260200160405190810160405280939291908181526020018383808284378201915050505050509190505061083b565b604051808215151515815260200191505060405180910390f35b341561031c57600080fd5b610367600480803573ffffffffffffffffffffffffffffffffffffffff1690602001909190803573ffffffffffffffffffffffffffffffffffffffff16906020019091905050610a9b565b6040518082815260200191505060405180910390f35b60008060008073__ECRecovery____________________________6319045a2587876000604051602001526040518363ffffffff167c010000000000000000000000000000000000000000000000000000000002815260040180836000191660001916815260200180602001828103825283818151815260200191508051906020019080838360005b83811015610421578082015181840152602081019050610406565b50505050905090810190601f16801561044e5780820380516001836020036101000a031916815260200191505b50935050505060206040518083038186803b151561046b57600080fd5b6102c65a03f4151561047c57600080fd5b5050506040518051905092508273ffffffffffffffffffffffffffffffffffffffff168a73ffffffffffffffffffffffffffffffffffffffff161415156104c257600080fd5b33898989604051808573ffffffffffffffffffffffffffffffffffffffff1673ffffffffffffffffffffffffffffffffffffffff166c010000000000000000000000000281526014018481526020018373ffffffffffffffffffffffffffffffffffffffff1673ffffffffffffffffffffffffffffffffffffffff166c010000000000000000000000000281526014018281526020019450505050506040518091039020915060016000836000191660001916815260200190815260200160002054905060018060008460001916600019168152602001908152602001600020819055506000811415156105b557600080fd5b856000191682600019161415156105cb57600080fd5b886105d6898c610a9b565b10156105e157600080fd5b61066f896000808b73ffffffffffffffffffffffffffffffffffffffff1673ffffffffffffffffffffffffffffffffffffffff16815260200190815260200160002060008d73ffffffffffffffffffffffffffffffffffffffff1673ffffffffffffffffffffffffffffffffffffffff16815260200190815260200160002054610b2190919063ffffffff16565b508773ffffffffffffffffffffffffffffffffffffffff1663a9059cbb338b6000604051602001526040518363ffffffff167c0100000000000000000000000000000000000000000000000000000000028152600401808373ffffffffffffffffffffffffffffffffffffffff1673ffffffffffffffffffffffffffffffffffffffff16815260200182815260200192505050602060405180830381600087803b151561071b57600080fd5b6102c65a03f1151561072c57600080fd5b5050506040518051905050600193505050509695505050505050565b60008082600081518110151561075a57fe5b9060200101517f010000000000000000000000000000000000000000000000000000000000000090047f010000000000000000000000000000000000000000000000000000000000000002905060017f010000000000000000000000000000000000000000000000000000000000000002817effffffffffffffffffffffffffffffffffffffffffffffffffffffffffffff19161415610806576107ff868686610b3a565b915061080b565b600091505b50949350505050565b60008060016000846000191660001916815260200190815260200160002054149050919050565b60008060008073__ECRecovery____________________________6319045a2587876000604051602001526040518363ffffffff167c010000000000000000000000000000000000000000000000000000000002815260040180836000191660001916815260200180602001828103825283818151815260200191508051906020019080838360005b838110156108df5780820151818401526020810190506108c4565b50505050905090810190601f16801561090c5780820380516001836020036101000a031916815260200191505b50935050505060206040518083038186803b151561092957600080fd5b6102c65a03f4151561093a57600080fd5b5050506040518051905092503373ffffffffffffffffffffffffffffffffffffffff168373ffffffffffffffffffffffffffffffffffffffff1614151561098057600080fd5b89898989604051808573ffffffffffffffffffffffffffffffffffffffff1673ffffffffffffffffffffffffffffffffffffffff166c010000000000000000000000000281526014018481526020018373ffffffffffffffffffffffffffffffffffffffff1673ffffffffffffffffffffffffffffffffffffffff166c010000000000000000000000000281526014018281526020019450505050506040518091039020915085600019168260001916141515610a3c57600080fd5b600160008360001916600019168152602001908152602001600020549050600260016000846000191660001916815260200190815260200160002081905550600081141515610a8a57600080fd5b600193505050509695505050505050565b60008060008473ffffffffffffffffffffffffffffffffffffffff1673ffffffffffffffffffffffffffffffffffffffff16815260200190815260200160002060008373ffffffffffffffffffffffffffffffffffffffff1673ffffffffffffffffffffffffffffffffffffffff16815260200190815260200160002054905092915050565b6000828211151515610b2f57fe5b818303905092915050565b60008173ffffffffffffffffffffffffffffffffffffffff163373ffffffffffffffffffffffffffffffffffffffff16141515610b7657600080fd5b600083111515610b8557600080fd5b8173ffffffffffffffffffffffffffffffffffffffff166323b872dd8530866000604051602001526040518463ffffffff167c0100000000000000000000000000000000000000000000000000000000028152600401808473ffffffffffffffffffffffffffffffffffffffff1673ffffffffffffffffffffffffffffffffffffffff1681526020018373ffffffffffffffffffffffffffffffffffffffff1673ffffffffffffffffffffffffffffffffffffffff1681526020018281526020019350505050602060405180830381600087803b1515610c6457600080fd5b6102c65a03f11515610c7557600080fd5b5050506040518051905050610d0e836000808573ffffffffffffffffffffffffffffffffffffffff1673ffffffffffffffffffffffffffffffffffffffff16815260200190815260200160002060008773ffffffffffffffffffffffffffffffffffffffff1673ffffffffffffffffffffffffffffffffffffffff16815260200190815260200160002054610d9890919063ffffffff16565b6000808473ffffffffffffffffffffffffffffffffffffffff1673ffffffffffffffffffffffffffffffffffffffff16815260200190815260200160002060008673ffffffffffffffffffffffffffffffffffffffff1673ffffffffffffffffffffffffffffffffffffffff16815260200190815260200160002081905550600190509392505050565b6000808284019050838110151515610dac57fe5b80915050929150505600a165627a7a72305820b4e1148a3fc44237f76452287b745745e76a715bb54a727d05efaae1eb93e6ed0029",
  "source": "pragma solidity ^0.4.18;\n\nimport \"./ECRecovery.sol\";\nimport \"./SafeMath.sol\";\n\n\ncontract ERC20Interface {\n    function totalSupply() public constant returns (uint);\n    function balanceOf(address tokenOwner) public constant returns (uint balance);\n    function allowance(address tokenOwner, address spender) public constant returns (uint remaining);\n    function transfer(address to, uint tokens) public returns (bool success);\n    function approve(address spender, uint tokens) public returns (bool success);\n    function transferFrom(address from, address to, uint tokens) public returns (bool success);\n\n    event Transfer(address indexed from, address indexed to, uint tokens);\n    event Approval(address indexed tokenOwner, address indexed spender, uint tokens);\n}\n\ncontract LavaWallet {\n\n\n      using SafeMath for uint;\n\n  // balances[tokenContractAddress][EthereumAccountAddress] = 0\n  mapping(address => mapping (address => uint256)) balances;\n  mapping(bytes32 => uint256) spentSignatures;\n\n\n  function LavaWallet() public  {\n\n  }\n\n\n  function balanceOf(address tokenContract,address tokenOwner) public constant returns (uint balance) {\n       return balances[tokenContract][tokenOwner];\n   }\n\n   function signatureSpent(bytes32 digest) public view returns (bool)\n   {\n     return (spentSignatures[digest] == 0x0);\n   }\n\n\n   function invalidateSignature(address to, uint256 tokens, address token, uint256 checkNumber, bytes32 sigHash, bytes signature) public returns (bool)\n   {\n       address recoveredSignatureSigner = ECRecovery.recover(sigHash,signature);\n\n       //maker sure the invalidator is the signer\n       if(recoveredSignatureSigner != msg.sender) revert();\n\n       bytes32 sigDigest = keccak256(to, tokens, token, checkNumber);\n\n       if(sigDigest != sigHash) revert();\n\n       //make sure this signature has never been used\n       uint spentSignature = spentSignatures[sigDigest];\n       spentSignatures[sigDigest] = 0x2; //invalidated\n       if(spentSignature != 0x0 ) revert();\n\n       return true;\n   }\n\n\n   //performed via an ApproveAndCall\n  function _depositTokens(address from, uint256 tokens, address token) internal returns (bool)\n  {\n      if(msg.sender != token) revert(); //must come from ApproveAndCall\n      if(tokens <= 0) revert(); //need to deposit some tokens\n\n      //we already have approval so lets do a transferFrom - transfer the tokens into this contract\n      ERC20Interface(token).transferFrom(from, this, tokens);\n      balances[token][from] = balances[token][from].add(tokens);\n\n      return true;\n  }\n\n  function withdrawTokensFrom(address from, uint256 tokens, address token, uint256 checkNumber, bytes32 sigHash, bytes signature) public returns (bool)\n  {\n      //check to make sure that signature == ecrecover signature\n\n      address recoveredSignatureSigner = ECRecovery.recover(sigHash,signature);\n\n      //make sure the signer is the depositor of the tokens\n      if(from != recoveredSignatureSigner) revert();\n\n      //make sure the signed hash incorporates the token recipient, quantity to withdraw, and the check number\n      bytes32 sigDigest = keccak256(msg.sender, tokens, token, checkNumber);\n\n      //make sure this signature has never been used\n      uint spentSignature = spentSignatures[sigDigest];\n      spentSignatures[sigDigest] = 0x1; //spent\n      if(spentSignature != 0x0 ) revert();\n\n      //make sure the data being signed (sigHash) really does match the msg.sender, tokens, and checkNumber\n      if(sigDigest != sigHash) revert();\n\n      //make sure the token-depositor has enough tokens in escrow\n      if(balanceOf(token, from) < tokens) revert();\n\n      //finally, transfer the tokens out of this contracts escrow to msg.sender\n      balances[token][from].sub(tokens);\n      ERC20Interface(token).transfer(msg.sender, tokens);\n\n\n      return true;\n  }\n\n   /*\n     Receive approval to spend tokens and perform any action all in one transaction\n   */\n function receiveApproval(address from, uint256 tokens, address token, bytes data) public returns (bool) {\n\n   //parse the data:   first byte is for 'action_id'\n   byte action_id = data[0];\n\n   if(action_id == 0x1)\n   {\n     return _depositTokens(from, tokens, token);\n   }\n\n   return false;\n   //return false;\n\n }\n\n\n}\n",
  "sourcePath": "/home/andy/dev/lava-wallet/contracts/LavaWallet.sol",
  "compiler": {
    "name": "solc",
    "version": "0.4.19+commit.c4cbbb05.Emscripten.clang"
  },
  "schemaVersion": "2.0.0",
  "updatedAt": "2018-03-24T00:45:23.998Z"
}